:100CAD000435000000000231000002230000022F75
:0E0CBD0000000A2500000000000000000000FA
:100B7200120D1F120D54D28AD2AAD2AFE5221460EE
:100B82001714602114602B24037030D296D2977F01
:100B92002C7E01120C8180E4C296D2977F2C7E01BA
:100BA200120BC280D7D296C2977FC87E00120C0E5B
:100BB20080CAC296C297120C4B80C1120D5F80BCD4
:03001300020AC41A
:100AC400C0E0C0F0C083C082C0D075D000C000C0F8
:100AD40001C002C003C004C005C006C00720B31291
:100AE400120D5F7F0A7E00120CE720B30505223049
:100AF400B3FDE522D394034003752200D007D0064A
:100B0400D005D004D003D002D001D000D0D0D08200
:070B1400D083D0F0D0E032E5
:040CFE007D787F7806
:0D0D02008F348D33D294C293C292D29122CD
:0D0D2D008F348D33C294D293C292D29122A2
:0D0D3A008F348D33D292C291D294C2932295
:0D0D47008F348D33D292C291C294D2932288
:090D5F00C294C293C292C2912217
:100CE7007D737C00ED1D70011C144C70F7EF1F70B5
:060CF700011E144E70EA1C
:010CFD0022D4
:100B1B00E534D394C840037534C8E534C3944650C8
:100B2B0003753446E533D394C840037533C8E533B6
:100B3B00C394465003753346E521D395345004D204
:100B4B00958002C295E521C394C84003E4F521E5E5
:100B5B0039D395335004D2908002C290E539C394B7
:070B6B00C84003E4F5392244
:100CCC00C2A10000000000D2A10000000000000042
:0B0CDC000000000000000000C2A12288
:100A5F00120D5FC2A27F647E00120CE7D2A27D78D6
:100A6F007F78120D477F327E00120CE77D787F78FA
:0A0A7F00120D2D7F647E00120CE7BB
:100A8900E4FFFEFDFC120CCC30A0FDD28E20A0FDAF
:100A9900C28EAF8DEFFEAD8B7C00E42DFDEC3EFCEC
:100AA900E4F58DF58BAE04AF0512090B7B777AE07F
:0A0AB900793C783E1208001209444F
:010AC3002210
:040C81008E088F0941
:100C85007F3C120A84C3EF9509EE95085016120AA7
:100C95005FC3EF9509EE950840F4120CFE7F3C7E8C
:070CA50000020CE7120CFE37
:010CAC002225
:040C0E008E088F09B4
:100C1200E4F50AF50B120C4B050BE50B7002050A05
:100C2200C39470E50A941740EC120A89C3EF950940
:100C3200EE95085013120D5FC2A2120A82C3EF95FD
:080C420009EE950840EFD2A273
:010C4A002287
:040BC2008E088F0901
:100BC600E4FBFA20B7077D787F78120D2D20B60753
:100BD6007D787F78120D3A0BBB00010ABA17E4BB89
:100BE60070E1120A89C3EF9509EE95085016120AAC
:100BF6005FC3EF9509EE950840F4120CFE7F3C7E2C
:070C060000020CE7120CFED6
:010C0D0022C4
:100C4B00A2B5E433FFA2B4E433FEEF75F00AA42E91
:100C5B00FEBE0B077D787F78020D02BE0A077DA0D2
:100C6B007F50120D2DBE01077D507FA0120D3AEE65
:050C7B007003120D5F83
:010C80002251
:0E0D1F00438902758CA4758AA4D28CD2A922B5
:0B0D5400438910E4F58DF58BD2AB2233
:03000B00020D0FD4
:100D0F00C0E0C0D005210539120B1BD0D0D0E03286
:03001B00020D686B
:050D6800D200C2A03220
:10080000EC4D6011E8497017ED33EC3304600DE4F2
:10081000FCFFFEFD22E933E8330470F80209B01250
:10082000097B58046009E4CC248150062850090251
:1008300009BA2840030209B7C0E0EB4A7044B98006
:1008400006D0E0FB0209A6EF4E701CBD8008EBFF4E
:10085000EAFEE9FD80EBE98DF0A4FEE5F00208E98F
:10086000E9CDF9EAFEEBFFEF89F0A4FCE5F0CE89D3
:10087000F0A42EFFE435F0CD89F0A42DFEE435F090
:100880008067EF4E7005BD80D780C3EF8BF0A4ACBE
:10089000F0EE8BF0A42CFCE435F0F8EF8AF0A42CF9
:1008A000E5F038FCE433CB8DF0A42CFCE5F03BF80C
:1008B000EE8AF0A42CFCE5F038F8E433CF89F0A4FC
:1008C0002CFCE5F038CF3400CE89F0A42FFFE5F002
:1008D0003EFEE433C98DF0A42EFEE5F039CD8AF05A
:1008E000A42FFFE5F03EFEE43DFD33D0E0FB5007D2
:1008F0000BBB000F0209BAEC2CFCEF33FFEE33FE0A
:06090000ED33FD02099237
:1009060075F020800E75F010800575F0087D007E6C
:10091600007F003392D530D5031209C5EC33401061
:10092600EF33FFEE33FEED33FDEC33FCD5F0ED2275
:0E093600E5F0247EA2D513CC92E7CDCEFF22B1
:10094400EDD2E7CD33EC3392D524814006E4FFFEAB
:10095400FDFC22FCE4CFCECDCC24E0501174FF800A
:10096400EDC3CC13CCCD13CDCE13CECF13CF0470A7
:07097400F030D5DE0209C5D9
:10097B00E9D2E7C933E833F892D5EDD2E7CD33ECC2
:07098B0033FC5002B2D5223B
:10099200EC30E7100FBF000C0EBE00080DBD0004C6
:1009A2000BEB6014A2D5EB13FCED92E7FD2274FF72
:1009B200FCFDFEFF22E480F8A2D574FF13FC7D80CB
:0309C200E480EFDF
:030000000209D31F
:0C09D300787FE4F6D8FD758139020A1A1D
:0E09C500C3E49FFFE49EFEE49DFDE49CFC2243
:1009DF00020B72E493A3F8E493A34003F68001F2B1
:1009EF0008DFF48029E493A3F85407240CC8C33319
:1009FF00C4540F4420C8834004F456800146F6DFE8
:100A0F00E4800B0102040810204080900CADE47EBE
:100A1F00019360BCA3FF543F30E509541FFEE493DC
:100A2F00A360010ECF54C025E060A840B8E493A3A3
:100A3F00FAE493A3F8E493A3C8C582C8CAC583CACE
:100A4F00F0A3C8C582C8CAC583CADFE9DEE780BE86
:010CCB000028
:00000001FF
